:020000040800F2
:1000000000500020B5270008D9260008DF26000888
:10001000E5260008EB260008F12600080000000095
:10002000000000000000000000000000F7260008AB
:1000300003270008000000000F2700081B27000806
:10004000FD270008FD270008FD270008FD27000800
:10005000FD270008FD270008FD270008FD270008F0
:10006000FD270008FD270008FD270008FD270008E0
:10007000FD270008FD270008FD270008FD270008D0
:10008000FD270008FD270008FD270008FD270008C0
:10009000FD270008FD270008FD270008FD270008B0
:1000A000FD270008FD270008FD270008FD270008A0
:1000B00029270008FD270008FD270008FD27000864
:1000C000FD270008FD270008FD270008FD27000880
:1000D000FD270008FD270008FD270008FD27000870
:1000E000FD270008FD270008FD270008000000008C
:1000F0000000000000000000000000000000000000
:0C01000000000000000000005FF808F1A3
:10010C0010B5054C237833B9044B13B10448AFF345
:10011C0000800123237010BDFC00002000000000B3
:10012C009052000808B5034B1BB103490348AFF3C9
:10013C00008008BD00000000000100209052000863
:10014C0080B582B000AF00237B607AE0414A7B68C7
:10015C0052F8232040497B6841F823203F4A7B68B2
:10016C0052F823203B497B6841F823203C4A7B68AA
:10017C0052F823203B497B6831F81330194610465E
:10018C0002F02CFE03461946344A7B6842F82310D1
:10019C00304A7B6852F8232030497B6851F8233071
:1001AC009A424BD12B4A7B6852F823202A497B6810
:1001BC0051F823309A4241D1274A7B6852F82320C8
:1001CC0029497B6851F823309A4218D0224A7B681F
:1001DC0052F8232024497B6841F82320224A7B686B
:1001EC0052F82330002B29D1204A7B68C82142F8D1
:1001FC0023101F4A7B68012142F823101EE01B4A82
:10020C007B6852F823305A1E18497B6841F823202A
:10021C00164A7B6852F82330002B0FD1134A7B68A7
:10022C00C82142F823100D4A7B6852F82330002B6A
:10023C0004D1104A7B68012142F823107B680133FA
:10024C007B607B68032B81DD00BF00BF0837BD4698
:10025C0080BD00BF280000203800002018000020BE
:10026C00080000200000002048000020580000205A
:10027C00180100202801002080B483B000AF786002
:10028C00094A7B6852F82330012B06D1064A7B6859
:10029C00002142F82310012300E0002318460C37FC
:1002AC00BD4680BC704700BF1801002080B483B0ED
:1002BC0000AF7860094A7B6852F82330012B06D1D5
:1002CC00064A7B68002142F82310012300E000233A
:1002DC0018460C37BD4680BC704700BF2801002073
:1002EC0080B582B000AF78607B689B6A044A13606B
:1002FC0004210A2002F0A4F800BF0837BD4680BDD7
:10030C003C01002084B080B500AF07F1080C8CE8EC
:10031C000F00012200210F4804F09EF8BB683A6DD3
:10032C005A630D4B1B7803F007030C4A52F8233029
:10033C004FF47A4292FBF3F2064B9A62064B1B780F
:10034C000133DAB2044B1A7000BFBD46BDE88040E1
:10035C0004B0704700040040380100206800002001
:10036C00F0B591B010AF284B1B68002B0BD10022BD
:10037C000021264804F070F8254B00221A70234AFD
:10038C00244B1B689362244B1B69012B37D11E4BEA
:10039C001B68022B17D1214E14230E936D4606F1C8
:1003AC0010040FCC0FC50FCC0FC50FCC0FC594E8A4
:1003BC00030085E8030096E80F00FFF7A3FF042174
:1003CC00642002F03DF8104B1B68012B17D1134E23
:1003DC0014230E936D4606F110040FCC0FC50FCCF1
:1003EC000FC50FCC0FC594E8030085E8030096E811
:1003FC000F00FFF787FF0421FA2002F021F800BF5D
:10040C000437BD46F0BD00BF400100200004004091
:10041C00380100203C0100205C030020DC0100209E
:10042C0080B483B000AF78607B68022B11D07B68FE
:10043C00022B12DC7B68002B03D07B68012B04D0D1
:10044C000BE00A4B00221A600BE0084B01221A60E9
:10045C0007E0064B02221A6003E0044B00221A60EC
:10046C0000BF00BF0C37BD4680BC70474001002068
:10047C0080B582B002AF914B1B78042B00F2138431
:10048C0001A252F823F000BFA904000807050008D8
:10049C0019070008FD080008F90A000801F0CAFA5B
:1004AC00864B01221A7000214FF47A7001F0C8FFBC
:1004BC00834B1B68834A1360834B1B68834A13600E
:1004CC008349844804F02CFA03469AB24FF47A73A9
:1004DC008049814804F0A4F87A4B1A687B4B1B685E
:1004EC007E497C4804F01CFA03469AB24FF47A73A6
:1004FC007849794804F094F8DEE36521642001F032
:10050C00C3F9774B1B68012B6AD16E4B1B68013BFF
:10051C006C4A13606D4B1B68013B6C4A13606B4B50
:10052C001B68002B0DD1654B04221A706D4B1B6898
:10053C00012B02D10220FFF773FF6B4B1B68634A40
:10054C001360604B1B68694A82FB03129210DB1725
:10055C00D31A674A13605B4B1968644B83FB012306
:10056C009A10CB17D21A13469B0013445B00CA1A7D
:10057C00604B1A60554B1B685C4A82FB031292104D
:10058C00DB17D31A5C4A1360504B1968574B83FB2B
:10059C0001239A10CB17D21A13469B0013445B000D
:1005AC00CA1A564B1A60524B1968524B1868524B68
:1005BC001B68524A12680192009303460A4650493E
:1005CC00444804F0ADF903469AB24FF47A734149AA
:1005DC00414804F025F800214FF47A7001F030FF07
:1005EC003F4B5B68012B18D13E4B1B68012B14D180
:1005FC003C4B00221A600020FFF712FF672001F02D
:10060C00C7F94049334804F08BF903469AB24FF4CA
:10061C007A733049304804F003F80020FFF72CFEC1
:10062C000346012B1DD1254B05221A7001F002FA4D
:10063C002C4B1B68012B14D12A4B00221A60002072
:10064C00FFF7EEFE672001F0A3F92E49214804F0D4
:10065C0067F903469AB24FF47A731E491E4803F0A9
:10066C00DFFF0320FFF708FE0346012B16D11D4BBD
:10067C0001221A6001214FF4FA5001F0E1FE2249E7
:10068C00144804F04DF903469AB24FF47A731149A9
:10069C00114803F0C5FF0120FFF7C2FE114B1B6888
:1006AC00012B02D1652001F073F90E4B1B68002B56
:1006BC0040F0FB82672001F06BF9F6E2920100201A
:1006CC0094000020440100209800002048010020E4
:1006DC00A85200086001002024020020B852000833
:1006EC005C0300205C0100209C00002067666666AD
:1006FC004C01002050010020540100205801002022
:10070C00C8520008DC520008F05200086421652031
:10071C0001F0BAF8664B1B68012B63D1654B1B6863
:10072C00013B644A1360644B1B68013B624A1360D3
:10073C00604B1B68002B06D1604B03221A70604B78
:10074C001B685C4A13605B4B1B685E4A82FB03129E
:10075C009210DB17D31A5C4A1360564B1968594B2D
:10076C0083FB01239A10CB17D21A13469B00134418
:10077C005B00CA1A554B1A604F4B1B68514A82FBDF
:10078C0003129210DB17D31A514A13604A4B1968A3
:10079C004C4B83FB01239A10CB17D21A13469B00A8
:1007AC0013445B00CA1A4B4B1A60474B1968474BF2
:1007BC001868474B1B68474A12680192009303461E
:1007CC000A464549454804F0ABF803469AB24FF443
:1007DC007A734249424803F023FF00214FF47A70A8
:1007EC0001F02EFE324B5B68012B15D13D4B1B6883
:1007FC00012B11D13B4B00221A60672001F0C8F885
:10080C003949364804F08CF803469AB24FF47A739F
:10081C003249334803F004FF0020FFF72DFD034657
:10082C00012B1AD1254B05221A7001F003F92D4B1F
:10083C001B68012B11D12B4B00221A60672001F091
:10084C00A7F82949254804F06BF803469AB24FF4EF
:10085C007A732249224803F0E3FE0320FFF70CFDD4
:10086C000346012B13D11F4B01221A6001214FF4B7
:10087C00FA5001F0E5FD1D49184804F051F8034603
:10088C009AB24FF47A731549154803F0C9FE154B0B
:10089C001B68012B02D1642001F07AF8114B1B6804
:1008AC00002B40F00482672001F072F8FFE100BFDA
:1008BC005C0300204401002048010020920100202C
:1008CC009C000020676666664C01002050010020E9
:1008DC005401002058010020C8520008600100207B
:1008EC00240200205C010020DC52000808530008A0
:1008FC006421662000F0C8FF6B4B1B68012B6ED186
:10090C006A4B1B68013B694A1360694B1B68013BCE
:10091C00674A1360654B1B68002B11DC654B012289
:10092C001A70654B1B68614A1360644B1B68604A04
:10093C001360634B1B68012B02D10120FFF770FD84
:10094C005A4B1B685F4A82FB03129210DB17D31AB7
:10095C005D4A1360554B19685A4B83FB01239A105F
:10096C00CB17D21A13469B0013445B00CA1A574B81
:10097C001A604F4B1B68534A82FB03129210DB1711
:10098C00D31A534A13604A4B19684E4B83FB01230D
:10099C009A10CB17D21A13469B0013445B00CA1A49
:1009AC004C4B1A60484B1968484B1868484B1B68ED
:1009BC00484A12680192009303460A464649474842
:1009CC0003F0AEFF03469AB24FF47A73434944489E
:1009DC0003F026FE00214FF47A7001F031FD324B0A
:1009EC005B68012B15D1364B1B68012B11D1344B95
:1009FC0000221A60672000F0CBFF3A49374803F019
:100A0C008FFF03469AB24FF47A733449344803F09B
:100A1C0007FE0020FFF730FC0346012B1AD1254BB3
:100A2C0005221A7001F006F8254B1B68012B11D119
:100A3C00234B00221A60672000F0AAFF294927489F
:100A4C0003F06EFF03469AB24FF47A73234924489D
:100A5C0003F0E6FD0320FFF70FFC0346012B13D137
:100A6C00174B01221A6001214FF4FA5001F0E8FCF7
:100A7C001D491A4803F054FF03469AB24FF47A7397
:100A8C001649174803F0CCFD0D4B1B68012B02D106
:100A9C00642000F07DFF0A4B1B68002B40F009819D
:100AAC00672000F075FF04E15C0300204401002086
:100ABC0048010020920100209400002098000020A2
:100ACC005C010020676666664C0100205001002026
:100ADC005401002058010020C85200086001002079
:100AEC0024020020DC520008085300086621642010
:100AFC0000F0CAFE724B1B68012B6AD1714B1B684C
:100B0C00013B704A1360704B1B68013B6E4A1360CB
:100B1C006D4B1B68002B0DD16C4B1B68694A136025
:100B2C006B4B1B68684A13606A4B02221A700020D8
:100B3C00FFF776FC634B1B68674A82FB031292102B
:100B4C00DB17D31A654A13605E4B1968624B83FB43
:100B5C0001239A10CB17D21A13469B0013445B0047
:100B6C00CA1A5F4B1A60584B1B685B4A82FB031214
:100B7C009210DB17D31A5B4A1360534B1968564B10
:100B8C0083FB01239A10CB17D21A13469B001344F4
:100B9C005B00CA1A544B1A60504B1968504B1868BA
:100BAC00504B1B68504A12680192009303460A4648
:100BBC004E494F4803F0B4FE03469AB24FF47A7391
:100BCC004B494C4803F02CFD00214FF47A7001F096
:100BDC0037FC3B4B5B68012B18D1474B1B68012B37
:100BEC0014D1454B00221A600020FFF719FC672036
:100BFC0000F0CEFE41493E4803F092FE03469AB205
:100C0C004FF47A733A493B4803F00AFD0020FFF792
:100C1C0033FB0346012B1DD12E4B05221A7000F01D
:100C2C0009FF354B1B68012B14D1334B00221A6082
:100C3C000020FFF7F5FB672000F0AAFE2F492C4897
:100C4C0003F06EFE03469AB24FF47A732849294892
:100C5C0003F0E6FC0320FFF70FFB0346012B13D137
:100C6C00254B01221A6001214FF4FA5001F0E8FBE8
:100C7C0023491F4803F054FE03469AB24FF47A738B
:100C8C001B491C4803F0CCFC1B4B1B68012B02D1ED
:100C9C00662000F07DFE184B1B68002B0BD16720E3
:100CAC0000F076FE07E000BF06E000BF04E000BFE6
:100CBC0002E000BF00E000BF00BFBD4680BD00BF2A
:100CCC005C03002044010020480100209800002013
:100CDC009400002092010020676666664C0100209B
:100CEC00500100205401002058010020C852000877
:100CFC0060010020240200205C010020DC5200086E
:100D0C001C53000880B500AF834B1B78053B042BAC
:100D1C0000F2EE8101A252F823F000BF3D0D000855
:100D2C00630D0008430E0008490F00081F1000084F
:100D3C00794B06221A700020FFF772FB774978482E
:100D4C0003F0EEFD03469AB24FF47A73744975487A
:100D5C0003F066FCD5E16521642000F095FD724B33
:100D6C009B68012B15D1714B1B68012B11D16F4B5B
:100D7C0000221A60672000F00BFE6D49684803F0F2
:100D8C00CFFD03469AB24FF47A736549654803F078
:100D9C0047FC0020FFF770FA0346012B18D15E4B7D
:100DAC000A221A70614B1B68012B11D15F4B002278
:100DBC001A60672000F0ECFD5D49594803F0B0FD66
:100DCC0003469AB24FF47A735549564803F028FCFF
:100DDC000120FFF751FA0346012B02D14E4B092299
:100DEC001A700320FFF748FA0346012B13D14F4B1F
:100DFC0001221A6002214FF4FA5001F021FB4D49F7
:100E0C00474803F08DFD03469AB24FF47A73444978
:100E1C00444803F005FC454B1B68012B02D16520AF
:100E2C0000F0B6FD414B1B68002B40F0638167203E
:100E3C0000F0AEFD5EE16421652000F025FD3A4B2B
:100E4C009B68012B15D1394B1B68012B11D1374BEA
:100E5C0000221A60672000F09BFD3549304803F0F2
:100E6C005FFD03469AB24FF47A732D492D4803F077
:100E7C00D7FB0020FFF700FA0346012B18D1264BB5
:100E8C000A221A70294B1B68012B11D1274B002207
:100E9C001A60672000F07CFD2549214803F040FDD5
:100EAC0003469AB24FF47A731D491E4803F0B8FBFF
:100EBC000120FFF7E1F90346012B02D1164B082262
:100ECC001A700320FFF7D8F90346012B13D1174BE7
:100EDC0001221A6002214FF4FA5001F0B1FA1649BE
:100EEC000F4803F01DFD03469AB24FF47A730C4978
:100EFC000C4803F095FB0D4B1B68012B02D16420B1
:100F0C0000F046FD094B1B68002B40F0F580672074
:100F1C0000F03EFDF0E000BF9201002034530008C9
:100F2C0060010020240200205C0300205C010020F2
:100F3C0040530008545300086C5300086421662089
:100F4C0000F0A2FC704B9B68012B11D16F4B00225F
:100F5C001A60672000F01CFD6D496E4803F0E0FC40
:100F6C0003469AB24FF47A736A496B4803F058FB04
:100F7C000020FFF781F90346012B18D1674B0A2299
:100F8C001A70624B1B68012B11D1604B00221A6046
:100F9C00672000F0FDFC5E495E4803F0C1FC03468F
:100FAC009AB24FF47A735B495B4803F039FB01202A
:100FBC00FFF762F90346012B02D1584B06221A7037
:100FCC000320FFF759F90346012B13D14F4B012294
:100FDC001A6002214FF4FA5001F032FA50494D4890
:100FEC0003F09EFC03469AB24FF47A7349494A487F
:100FFC0003F016FB454B1B68012B02D1642000F05B
:10100C00C7FC424B1B68002B78D1672000F0C0FC5A
:10101C0074E06621642000F037FC3B4B9B68012B8D
:10102C0015D13A4B1B68012B11D1384B00221A6099
:10103C00672000F0ADFC3649364803F071FC0346DE
:10104C009AB24FF47A733349334803F0E9FA00202B
:10105C00FFF712F90346012B18D1304B0A221A70F4
:10106C002A4B1B68012B11D1284B00221A606720D8
:10107C0000F08EFC2649274803F052FC03469AB236
:10108C004FF47A732349244803F0CAFA0120FFF77E
:10109C00F3F80346012B02D1204B07221A700320D0
:1010AC00FFF7EAF80346012B13D1184B01221A6003
:1010BC0002214FF4FA5001F0C3F91A49154803F014
:1010CC002FFC03469AB24FF47A731249124803F07C
:1010DC00A7FA0E4B1B68012B02D1662000F058FCBE
:1010EC000A4B1B68002B0BD1672000F051FC07E06A
:1010FC0000BF06E000BF04E000BF02E000BF00E05C
:10110C0000BF00BF80BD00BF5C0300205C0100205D
:10111C0040530008600100202402002092010020AE
:10112C006C5300088053000880B400AF124B1A684F
:10113C00124B1B681A44124B1B689A4218D00E4B68
:10114C001A680E4B1B681A440D4B1B689A4207DA3F
:10115C00094B1A68094B1B681344094A136008E0D1
:10116C00074B1A68044B1B68D31A044A136000E03F
:10117C0000BFBD4680BC7047980000209C0000203A
:10118C009400002080B59AB000AF9E4B1B780A3BB0
:10119C00032B00F2548301A252F823F0B91100087A
:1011AC002B1200084D14000869160008954B0B22F1
:1011BC001A700321FA2001F043F99349934803F084
:1011CC00AFFB03469AB24FF47A739049904803F000
:1011DC0027FA904B1B68904A82FB03129210DB1784
:1011EC00D31A7B608B4B1A688B4B83FB02139910C1
:1011FC00D317C91A0B469B000B445B00D31A3B60F8
:10120C003B687A688549814803F08AFB03469AB2A9
:10121C004FF47A737D497E4803F002FA16E3804B53
:10122C00DB68012B05D100F023FC0321FA2001F02F
:10123C0007F90020FFF720F80346012B2CD1714B46
:10124C000D221A70734B01221A6000F0F3FB754BE0
:10125C001B68714A82FB03129210DB17D31A7B6254
:10126C00704B1A686C4B83FB02139910D317C91A75
:10127C000B469B000B445B00D31A3B623B6A7A6AB9
:10128C006949624803F04CFB03469AB24FF47A73F7
:10129C005E495F4803F0C4F90020FFF707F80346E6
:1012AC00012B0FD1574B00221A705A4B01221A6096
:1012BC005E4B01221A605B4B01221A60FFF734FF70
:1012CC0000F0B8FB0120FEF7D7FF0346012B30D10D
:1012DC00504B1B6801334F4A13604E4B1B68632BFA
:1012EC0002DD4C4B01221A604A4B1B684A4A82FBB6
:1012FC0003129210DB17D31AFB61464B1A68464B4C
:10130C0083FB02139910D317C91A0B469B000B448D
:10131C005B00D31ABB61BB69FA6945493B4803F0D2
:10132C00FFFA03469AB24FF47A733849384803F0FF
:10133C0077F90120FEF7BAFF0346012B30D1354B6C
:10134C001B680A33334A1360324B1B68632B02DD74
:10135C00304B01221A602F4B1B682F4A82FB031261
:10136C009210DB17D31A7B612A4B1A682A4B83FB2A
:10137C0002139910D317C91A0B469B000B445B0040
:10138C00D31A3B613B697A692A49204803F0C8FAB1
:10139C0003469AB24FF47A731C491D4803F040F986
:1013AC000220FEF769FF0346012B40F04A82194BDD
:1013BC001B68214A1360204B1B68174A82FB0312DF
:1013CC009210DB17D31AFB601B4B1A68124B83FB72
:1013DC0002139910D317C91A0B469B000B445B00E0
:1013EC00D31ABB60BB68FA681449084803F098FA32
:1013FC0003469AB24FF47A730449054803F010F986
:10140C001FE200BF920100209853000860010020E9
:10141C00240200208800002067666666A45300083A
:10142C005C03002090000020BC5300088C000020BE
:10143C00D8530008F45300089400002014540008FA
:10144C00794BDB68012B05D100F02EFB0321FA2030
:10145C0000F0F6FF0020FEF70FFF0346012B2ED104
:10146C00FFF762FE714B0B221A70714B01221A604E
:10147C0000F0E0FA6F4B1B686F4A82FB031292106C
:10148C00DB17D31A7B646B4B1A686B4B83FB021311
:10149C009910D317C91A0B469B000B445B00D31A47
:1014AC003B643B6C7A6C6549654803F039FA03463A
:1014BC009AB24FF47A736249624803F0B1F8002093
:1014CC00FEF7F4FE0346012B0FD1584B00221A7085
:1014DC00584B01221A60564B01221A605A4B0122BA
:1014EC001A60FFF721FE00F0A5FA0120FEF7C4FEFA
:1014FC000346012B30D14E4B1B6801334C4A136011
:10150C004B4B1B68632B02DD494B01221A60484B85
:10151C001B68494A82FB03129210DB17D31AFB6338
:10152C00434B1A68444B83FB02139910D317C91A07
:10153C000B469B000B445B00D31ABB63BB6BFA6B73
:10154C0042493F4803F0ECF903469AB24FF47A73E0
:10155C003B493C4803F064F80120FEF7A7FE034624
:10156C00012B30D1324B1B680A33314A1360304B9C
:10157C001B68632B02DD2E4B01221A602C4B1B685F
:10158C002D4A82FB03129210DB17D31A7B63284B74
:10159C001A68294B83FB02139910D317C91A0B46EF
:1015AC009B000B445B00D31A3B633B6B7A6B284963
:1015BC00234803F0B5F903469AB24FF47A732049E5
:1015CC00204803F02DF80220FEF756FE0346012BAF
:1015DC0040F03981164B1B681E4A13601D4B1B686B
:1015EC00154A82FB03129210DB17D31AFB62194BBC
:1015FC001A68114B83FB02139910D317C91A0B46A7
:10160C009B000B445B00D31ABB62BB6AFA6A12499B
:10161C000B4803F085F903469AB24FF47A730849E4
:10162C00084802F0FDFF0EE15C030020920100204F
:10163C008C0000208800002067666666A4530008B2
:10164C006001002024020020900000202C5400088F
:10165C004C540008980000206C5400087D4BDB684B
:10166C00012B05D100F03CFA0321FA2000F0E8FE32
:10167C000020FEF701FE0346012B2CD1764B0C22E9
:10168C001A70764B01221A6000F0D4F9744B1B6867
:10169C00744A82FB03129210DB17D31A7B66704BD1
:1016AC001A68704B83FB02139910D317C91A0B4697
:1016BC009B000B445B00D31A3B663B6E7A6E6A4907
:1016CC006A4803F02DF903469AB24FF47A736749CE
:1016DC00674802F0A5FF0020FEF7E8FD0346012B4A
:1016EC000FD15D4B00221A70624B01221A605C4BC9
:1016FC0001221A60594B01221A60FFF715FD00F008
:10170C0099F90120FEF7B8FD0346012B30D1534B5C
:10171C001B680133514A1360504B1B68632B02DD6D
:10172C004E4B01221A604D4B1B684E4A82FB031232
:10173C009210DB17D31AFB65484B1A68494B83FB95
:10174C0002139910D317C91A0B469B000B445B006C
:10175C00D31ABB65BB6DFA6D4749444803F0E0F8FA
:10176C0003469AB24FF47A734049414802F058FF4D
:10177C000120FEF79BFD0346012B30D1374B1B6834
:10178C000A33364A1360354B1B68632B02DD334B2F
:10179C0001221A60314B1B68324A82FB03129210F1
:1017AC00DB17D31A7B652D4B1A682E4B83FB021368
:1017BC009910D317C91A0B469B000B445B00D31A24
:1017CC003B653B6D7A6D2D49284803F0A9F803461B
:1017DC009AB24FF47A732549254802F021FF022072
:1017EC00FEF74AFD0346012B2FD11C4B1B68244AE4
:1017FC001360234B1B681B4A82FB03129210DB17EE
:10180C00D31AFB641E4B1A68164B83FB02139910F8
:10181C00D317C91A0B469B000B445B00D31ABB644D
:10182C00BB6CFA6C1749114803F07AF803469AB26C
:10183C004FF47A730D490E4802F0F2FE05E000BF3A
:10184C0004E000BF02E000BF00E000BF00BF68374B
:10185C00BD4680BD5C03002092010020900000205A
:10186C008C000020676666668454000860010020C6
:10187C002402002088000020A0540008C054000856
:10188C009C000020E054000880B582B000AF786066
:10189C0039607B68662B21D07B68662B2ADC7B68E1
:1018AC00642B03D07B68652B0CD023E001224FF412
:1018BC008061354801F0A9FA00220821334801F073
:1018CC00A4FA23E000224FF480612F4801F09DFA26
:1018DC00012208212D4801F098FA17E001224FF45B
:1018EC008061294801F091FA01220821274801F072
:1018FC008CFA0BE000224FF48061234801F085FA4A
:10190C0000220821214801F080FA00BF3B68662BB9
:10191C001FD03B68662B27DC3B68642B03D03B68ED
:10192C00652B0BD020E001222021184801F06DFA24
:10193C0000221021154801F068FA20E00022202135
:10194C00124801F062FA01221021104801F05DFAF0
:10195C0015E0012220210D4801F057FA0122102137
:10196C000A4801F052FA0AE000222021074801F04F
:10197C004CFA00221021054801F047FA00BF00BFC5
:10198C000837BD4680BD00BF00080140000C014077
:10199C0080B582B000AF78607B68643B032B3FD886
:1019AC0001A252F823F000BFC5190008DF19000886
:1019BC00F9190008131A000801224FF480611B4822
:1019CC0001F023FA00224FF48071194801F01DFA3E
:1019DC0027E000224FF48061144801F016FA01222E
:1019EC004FF48071124801F010FA1AE001224FF402
:1019FC0080610E4801F009FA01224FF480710C4805
:101A0C0001F003FA0DE000224FF48061074801F069
:101A1C00FCF900224FF48071054801F0F6F900E062
:101A2C0000BF00BF0837BD4680BD00BF000C0140A1
:101A3C000008014080B500AF00224FF480610A48D5
:101A4C0001F0E3F900220821084801F0DEF9002238
:101A5C002021064801F0D9F900221021034801F099
:101A6C00D4F900BF80BD00BF00080140000C01404C
:101A7C0080B500AF00220821094801F0C6F9002208
:101A8C001021074801F0C1F94FF48061054801F0BD
:101A9C00D4F92021024801F0D0F900BF80BD00BF6D
:101AAC00000C01400008014080B500AF00224FF44B
:101ABC008061094801F0A9F900222021074801F0B2
:101ACC00A4F90821054801F0B8F91021034801F0E8
:101ADC00B4F900BF80BD00BF00080140000C0140FC
:101AEC0080B500AF4FF48061084801F0A6F90821D9
:101AFC00074801F0A2F92021054801F09EF91021B8
:101B0C00034801F09AF900BF80BD00BF00080140F6
:101B1C00000C014080B500AF00F06CFE00F04AF8FC
:101B2C0000F05AF900F088F800F02CF900F0D0F829
:101B3C00164801F017FE0021154801F0B5FE1548B6
:101B4C00FEF7CEFB144B00221A7001220021134821
:101B5C0000F0E8F901220021114800F0E3F901221C
:101B6C000021104800F0DEF9012200210E4800F09F
:101B7C00D9F9012200210D4800F0D4F901220021ED
:101B8C000B4800F0CFF900F017FCFCE794010020A3
:101B9C00DC01002000040040920100207D040008BC
:101BAC00110D0008911100084D0100088D2400084A
:101BBC006D03000880B590B000AF07F11803282220
:101BCC000021184602F0CCFE3B1D00221A605A6020
:101BDC009A60DA601A610223BB610123BB62102395
:101BEC00FB6202237B630023BB634FF46013FB6334
:101BFC0007F11803184601F055F90346002B01D0E4
:101C0C0000F062F90F237B600223BB600023FB60B2
:101C1C004FF480633B6100237B613B1D022118461E
:101C2C0001F0C2FB0346002B01D000F04DF900BFC0
:101C3C004037BD4680BD000080B586B000AF07F1CF
:101C4C00080300221A605A609A60DA603B46002250
:101C5C001A605A601D4B4FF080421A601B4B41F6C4
:101C6C003F725A60194B00229A60184B4F22DA606F
:101C7C00164B00221A61154B00229A61134801F091
:101C8C0021FD0346002B01D000F01EF94FF48053C8
:101C9C00BB6007F1080319460C4802F071F80346C3
:101CAC00002B01D000F010F900233B6000237B6077
:101CBC003B461946054802F0F3FB0346002B01D0C6
:101CCC0000F002F900BF1837BD4680BD940100201A
:101CDC0080B58AB000AF07F1200300221A605A6069
:101CEC003B1D00221A605A609A60DA601A615A61D0
:101CFC009A61224B224A1A60204B3F225A601F4B9A
:101D0C0000229A601D4B40F2E732DA601B4B002236
:101D1C001A611A4B00229A61184801F075FD0346AE
:101D2C00002B01D000F0D0F800233B6200237B6233
:101D3C0007F120031946114802F0B2FB0346002BB1
:101D4C0001D000F0C1F860237B600023BB6000234E
:101D5C00FB6000237B613B1D00221946074801F004
:101D6C004DFF0346002B01D000F0AEF8034800F005
:101D7C0031FC00BF2837BD4680BD00BFDC01002010
:101D8C000004004080B500AF114B124A1A60104B92
:101D9C004FF4E1325A600E4B00229A600C4B002239
:101DAC00DA600B4B00221A61094B0C225A61084B6A
:101DBC0000229A61064B0022DA61054802F0E0FB32
:101DCC000346002B01D000F07FF800BF80BD00BFA0
:101DDC00240200200044004080B586B000AF07F11B
:101DEC00080300221A605A609A60DA602E4B9B69D5
:101DFC002D4A43F0040393612B4B9B6903F00403BE
:101E0C007B607B68284B9B69274A43F008039361EE
:101E1C00254B9B6903F008033B603B6800224FF4A1
:101E2C008761224800F0F1FF00224FF4A0612048A6
:101E3C0000F0EBFF1323BB600023FB6001233B612D
:101E4C0007F1080319461A4800F044FE0123BB6051
:101E5C000023FB6001233B6107F10803194613487B
:101E6C0000F038FE4FF48763BB600123FB60002356
:101E7C003B6102237B6107F1080319460B4800F014
:101E8C0029FE4FF4A063BB600123FB6000233B6180
:101E9C0002237B6107F108031946054800F01AFE7E
:101EAC0000BF1837BD4680BD00100240000C014039
:101EBC000008014080B582B000AF786000F00AF8ED
:101ECC0000BF0837BD4680BD80B400AF72B600BFFE
:101EDC00FEE7000080B400AF104B1B6801330F4AC3
:101EEC0013600F4B1B68002B13D00D4B1B7B002B6F
:101EFC000FD10B4B5B68002B04D0094B5B68013B8B
:101F0C00074A5360064B5B68002B02D1044B01223D
:101F1C001A7300BFBD4680BC704700BF3803002059
:101F2C006C02002090B589B000AFF860B9607A609F
:101F3C000023FB770023BB6100233B610023FB776D
:101F4C0033E1FA7FA14913469B0013449B000B44D9
:101F5C0004331B68BA691344BB61BA69BB689A4203
:101F6C0040F2C180FA7F994913469B0013449B00B1
:101F7C000B4404331A68BB69D31ABA6813443B6127
:101F8C00FA7FB969BB68C91A904813469B00134481
:101F9C009B000344043319600923FB754CE0FB7D63
:101FAC00591EFA7D89480B469B000B449B00034449
:101FBC001968864813469B0013449B000344196020
:101FCC00FB7D591EFA7D81480B469B000B449B0000
:101FDC000344083319687D4813469B0013449B0047
:101FEC00034408331960FB7D591EFA7D77480B4674
:101FFC009B000B449B00034404331968734813463D
:10200C009B0013449B00034404331960FB7D591E51
:10201C00FA7D6E480B469B000B449B000344103327
:10202C0019686A4813469B0013449B000344103301
:10203C001960FB7D013BFB75FA7DFB7F9A42AED8A4
:10204C00FA7F624913469B0013449B000B44FA68C9
:10205C001A60FA7F5D4913469B0013449B000B44A6
:10206C0004333A691A60FA7F584913469B001344AB
:10207C009B000B4408337A681A60FA7F5349134665
:10208C009B0013449B000B4404331B68002B0AD1A8
:10209C00FA7F4E4913469B0013449B000B440C33B0
:1020AC0001221A7009E0FA7F484913469B00134439
:1020BC009B000B440C3300221A70FC7F00F0A8F933
:1020CC000246424923469B0023449B000B44103399
:1020DC001A60FA7F3D4913469B0013449B000B4446
:1020EC0010331B686EE0FA7F384913469B0013448B
:1020FC009B000B441B68002B54D1FA7F33491346C9
:10210C009B0013449B000B44FA681A60FA7FB96871
:10211C00BB69C91A2D4813469B0013449B0003440A
:10212C0004331960FA7F294913469B0013449B0022
:10213C000B4408337A681A60FA7F244913469B00D3
:10214C0013449B000B4404331B68002B0AD1FA7F09
:10215C001E4913469B0013449B000B440C33012275
:10216C001A7009E0FA7F194913469B0013449B002F
:10217C000B440C3300221A70FC7F00F049F9024624
:10218C00124923469B0023449B000B4410331A60D6
:10219C00FA7F0E4913469B0013449B000B441033EB
:1021AC001B680FE0FB7F0133FB77FB7F092B7FF66E
:1021BC00C8AEFA7F054913469B0013449B000B44A1
:1021CC0010331B6818462437BD4690BD6C020020A6
:1021DC0080B485B000AF786000237B737B68002BE4
:1021EC0000F0E2800023FB73DAE0FA7B71491346BE
:1021FC009B0013449B000B4410331B687A689A4273
:10220C0040F0CB8001237B73FB7B002B2BD0FB7B23
:10221C00082B28D8FB7B5A1C664913469B00134499
:10222C009B000B441B68002B1DD0FB7B5A1C614987
:10223C0013469B0013449B000B4404331968FA7B30
:10224C005C4813469B0013449B00034404331B68F7
:10225C00FA7B01321944574813469B0013449B00E8
:10226C00034404331960FB7BBB7360E0BB7B591CDC
:10227C00BA7B50480B469B000B449B0003441968E7
:10228C004C4813469B0013449B0003441960BB7BD2
:10229C00591CBA7B47480B469B000B449B000344DC
:1022AC0008331968434813469B0013449B000344AE
:1022BC0008331960BB7B591CBA7B3E480B469B000C
:1022CC000B449B000344043319683A4813469B00A3
:1022DC0013449B00034404331960BB7B591CBA7B29
:1022EC0034480B469B000B449B0003440C3318787A
:1022FC00304913469B0013449B000B440C3302469D
:10230C001A70BB7B591CBA7B2A480B469B000B44AA
:10231C009B00034410331968264813469B00134452
:10232C009B00034410331960BB7B0133BB73BB7B35
:10233C00082B9BD9BA7B1F4913469B0013449B0067
:10234C000B4400221A60BA7B1A4913469B001344B3
:10235C009B000B44083300221A60BA7B15491346C4
:10236C009B0013449B000B44043300221A60BA7B7D
:10237C00104913469B0013449B000B440C33002262
:10238C001A70BA7B0B4913469B0013449B000B44F9
:10239C00103300221A607B7B07E0FB7B0133FB735D
:1023AC00FB7B092B7FF621AF7B7B18461437BD4690
:1023BC0080BC70476C020020B0B586B000AF134BE8
:1023CC001B7B002B19D0114B1B6898470F4B00221D
:1023DC001A730E4B3C1D1D460FCD0FC42B6823608A
:1023EC007B691846FFF7F4FEFB68002B05D07B6871
:1023FC00F968FA681846FFF795FD0121002000F0F6
:10240C0035FD00BF1837BD46B0BD00BF6C020020C3
:10241C0080B400AF094B1B680133084A1360074BAB
:10242C001B68002B04D1054B1B680133034A136056
:10243C00024B1B681846BD4680BC70473403002015
:10244C0080B483B000AF786039607B68094A82FB46
:10245C0003129210DB17D21A07493B6841F823206C
:10246C00064A3B68002142F8231000BF0C37BD46DA
:10247C0080BC7047676666663C0300205C030020E6
:10248C0080B483B000AF00237B6022E0154A7B68E8
:10249C0052F82330002B19DD134A7B6852F8233095
:1024AC00002B13D10F4A7B6852F823305A1E0D496A
:1024BC007B6841F823200B4A7B6852F82330002BB1
:1024CC0004DC094A7B68012142F823107B68013344
:1024DC007B607B68072BD9DD00BF00BF0C37BD4686
:1024EC0080BC70473C0300205C03002080B485B0A6
:1024FC0000AF154B9B69144A43F001039361124BD7
:10250C009B6903F00103BB60BB680F4BDB690E4A90
:10251C0043F08053D3610C4BDB6903F080537B6039
:10252C007B680A4B5B68FB60FB6823F0E063FB6035
:10253C00FB6843F00073FB60044AFB68536000BF08
:10254C001437BD4680BC70470010024000000140AB
:10255C0080B584B000AF78607B681B68B3F1804FA6
:10256C0013D10C4BDB690B4A43F00103D361094BCC
:10257C00DB6903F00103FB60FB68002200211C20D7
:10258C0000F071FA1C2000F08AFA00BF1037BD462B
:10259C0080BD00BF0010024080B485B000AF7860F1
:1025AC007B681B68094A93420BD1094BDB69084ACB
:1025BC0043F00203D361064BDB6903F00203FB60BB
:1025CC00FB6800BF1437BD4680BC70470004004058
:1025DC000010024080B588B000AF786007F110039E
:1025EC0000221A605A609A60DA607B681B680F4A96
:1025FC00934217D10E4B9B690D4A43F00403936130
:10260C000B4B9B6903F00403FB60FB6840233B61AD
:10261C0002237B610223FB6107F110031946054875
:10262C0000F058FA00BF2037BD4680BD00040040C2
:10263C00001002400008014080B588B000AF7860FF
:10264C0007F1100300221A605A609A60DA607B6806
:10265C001B681B4A93422FD11A4BDB69194A43F46E
:10266C000033D361174BDB6903F40033FB60FB6869
:10267C00144B9B69134A43F004039361114B9B6900
:10268C0003F00403BB60BB6804233B6102237B6142
:10269C000323FB6107F1100319460B4800F01AFAEB
:1026AC0008233B6100237B610023BB6107F110030E
:1026BC001946054800F00EFA00BF2037BD4680BD14
:1026CC0000440040001002400008014080B400AFFC
:1026DC00FEE780B400AFFEE780B400AFFEE780B445
:1026EC0000AFFEE780B400AFFEE780B400AF00BFE0
:1026FC00BD4680BC704780B400AF00BFBD4680BCF7
:10270C00704780B400AF00BFBD4680BC704780B539
:10271C0000AF00F0B5F800BF80BD000080B500AF81
:10272C00024801F063F900BF80BD00BF9401002096
:10273C0080B586B000AF7860144A154BD31A7B6114
:10274C007B693B61134B1B68002B02D1114B124A66
:10275C001A60104B1A687B6813443A699A4207D284
:10276C0002F006F903460C221A604FF0FF3309E021
:10277C00084B1B68FB60074B1A687B681344054ABF
:10278C001360FB6818461837BD4680BD005000200A
:10279C00000400007C030020D004002080B400AFB3
:1027AC0000BFBD4680BC7047FFF7F8FF0B480C49D3
:1027BC000C4A002302E0D458C4500433C4188C4291
:1027CC00F9D3094A094C002301E013600432A242F8
:1027DC00FBD302F0D3F8FFF79DF9704700000020FF
:1027EC00FC00002060550008FC000020CC040020F8
:1027FC00FEE7000080B500AF084B1B68074A43F0AA
:10280C0010031360032000F023F90F2000F008F8E8
:10281C00FFF76CFE0023184680BD00BF002002406D
:10282C0080B582B000AF7860124B1A68124B1B78DF
:10283C0019464FF47A73B3FBF1F3B2FBF3F318467A
:10284C0000F03BF90346002B01D001230EE07B681E
:10285C000F2B0AD8002279684FF0FF3000F003F9F3
:10286C00064A7B681360002300E0012318460837F2
:10287C00BD4680BDA0000020A8000020A4000020C0
:10288C0080B400AF054B1B781A46054B1B681344EC
:10289C00034A136000BFBD4680BC7047A8000020EF
:1028AC008003002080B400AF024B1B681846BD4665
:1028BC0080BC70478003002080B485B000AF786086
:1028CC007B6803F00703FB600C4BDB68BB60BA68EA
:1028DC004FF6FF031340BB60FB681A02BB6813433F
:1028EC0043F0BF6343F40033BB60044ABB68D3605E
:1028FC0000BF1437BD4680BC704700BF00ED00E040
:10290C0080B400AF044BDB681B0A03F007031846C6
:10291C00BD4680BC704700BF00ED00E080B483B0C2
:10292C0000AF0346FB7197F90730002B0BDBFB79EB
:10293C0003F01F02064997F907305B09012000FAE2
:10294C0002F241F8232000BF0C37BD4680BC704713
:10295C0000E100E080B483B000AF03463960FB7146
:10296C0097F90730002B0ADB3B68DAB20C4997F970
:10297C0007301201D2B20B4483F800230AE03B6803
:10298C00DAB20849FB7903F00F03043B1201D2B20F
:10299C000B441A7600BF0C37BD4680BC704700BF95
:1029AC0000E100E000ED00E080B489B000AFF86019
:1029BC00B9607A60FB6803F00703FB61FB69C3F144
:1029CC000703042B28BF0423BB61FB690433062BCC
:1029DC0002D9FB69033B00E000237B614FF0FF321F
:1029EC00BB6902FA03F3DA43BB681A407B699A406D
:1029FC004FF0FF317B6901FA03F3D9437B680B403D
:102A0C00134318462437BD4680BC704780B582B04E
:102A1C0000AF78607B68013BB3F1807F01D3012369
:102A2C000FE00A4A7B68013B53600F214FF0FF30E7
:102A3C00FFF790FF054B00229A60044B07221A60A7
:102A4C00002318460837BD4680BD00BF10E000E0EB
:102A5C0080B582B000AF78607868FFF72DFF00BFBB
:102A6C000837BD4680BD80B586B000AF0346B9605F
:102A7C007A60FB7300237B61FFF742FF78617A6811
:102A8C00B9687869FFF790FF024697F90F30114645
:102A9C001846FFF75FFF00BF1837BD4680BD80B5F5
:102AAC0082B000AF0346FB7197F907301846FFF769
:102ABC0035FF00BF0837BD4680BD80B582B000AF82
:102ACC0078607868FFF7A2FF034618460837BD46C2
:102ADC0080BD000080B48BB000AF786039600023FB
:102AEC007B6200233B6269E101227B6A02FA03F3F9
:102AFC00FB613B681B68FA691340BB61BA69FB69EF
:102B0C009A4240F058813B685B689A4A93425ED087
:102B1C00984A934275D8984A934258D0964A934211
:102B2C006FD8964A934252D0944A934269D8944AA9
:102B3C0093424CD0924A934263D8924A934246D0E5
:102B4C00904A93425DD8122B2AD8122B59D801A245
:102B5C0052F823F0DB2B0008B52B0008C72B00081C
:102B6C00092C00080F2C00080F2C00080F2C000853
:102B7C000F2C00080F2C00080F2C00080F2C00083D
:102B8C000F2C00080F2C00080F2C00080F2C00082D
:102B9C000F2C00080F2C0008BD2B0008D12B0008AF
:102BAC00794A934213D02CE03B68DB683B6229E006
:102BBC003B68DB6804333B6224E03B68DB6808332A
:102BCC003B621FE03B68DB680C333B621AE03B68FE
:102BDC009B68002B02D104233B6213E03B689B688B
:102BEC00012B05D108233B627B68FA691A6109E065
:102BFC0008233B627B68FA695A6103E000233B625D
:102C0C0000E000BFBB69FF2B01D87B6801E07B684B
:102C1C0004337B61BB69FF2B02D87B6A9B0002E00B
:102C2C007B6A083B9B003B617B691A680F213B69FF
:102C3C0001FA03F3DB431A40396A3B6901FA03F3E7
:102C4C001A437B691A603B685B6803F08053002B66
:102C5C0000F0B1804D4B9B694C4A43F001039361EA
:102C6C004A4B9B6903F00103BB60BB68484A7B6A13
:102C7C009B08023352F82330FB607B6A03F003039A
:102C8C009B000F2202FA03F3DB43FA681340FB604C
:102C9C007B68404A934213D07B683F4A93420DD0E5
:102CAC007B683E4A934207D07B683D4A934201D1F0
:102CBC00032306E0042304E0022302E0012300E0E6
:102CCC0000237A6A02F0030292009340FA681343DD
:102CDC00FB602F497B6A9B080233FA6841F823207A
:102CEC003B685B6803F48013002B06D02D4B9A686D
:102CFC002C49BB6913438B6006E02A4B9A68BB696D
:102D0C00DB43284913408B603B685B6803F400137A
:102D1C00002B06D0234BDA682249BB691343CB60E6
:102D2C0006E0204BDA68BB69DB431E491340CB60DD
:102D3C003B685B6803F40033002B06D0194B5A68D0
:102D4C001849BB6913434B6006E0164B5A68BB69C4
:102D5C00DB43144913404B603B685B6803F48033DE
:102D6C00002B21D00F4B1A680E49BB6913430B6023
:102D7C0021E000BF000032100000311000002210D2
:102D8C000000211000001210000011100010024071
:102D9C000000014000080140000C014000100140FF
:102DAC0000140140000401400B4B1A68BB69DB4363
:102DBC00094913400B607B6A01337B623B681A68DC
:102DCC007B6A22FA03F3002B7FF48EAE00BF00BFA8
:102DDC002C37BD4680BC70470004014080B485B0E0
:102DEC0000AF78600B467B807B689A687B881340C9
:102DFC00002B02D00123FB7301E00023FB73FB7B50
:102E0C0018461437BD4680BC704780B483B000AF01
:102E1C0078600B467B8013467B707B78002B03D04D
:102E2C007A887B681A6103E07B881A047B681A61D4
:102E3C0000BF0C37BD4680BC704780B485B000AF76
:102E4C0078600B467B807B68DB68FB607A88FB686C
:102E5C0013401A04FB68D9437B880B401A437B68E8
:102E6C001A6100BF1437BD4680BC704780B483B074
:102E7C0000AF78600B46FB70094B1B69084A23F0C6
:102E8C0004031361FB78012B01D130BF02E040BF7A
:102E9C0020BF20BF00BF0C37BD4680BC704700BFB1
:102EAC0000ED00E080B586B000AF78607B68002B49
:102EBC0001D1012372E27B681B6803F00103002B34
:102ECC0000F08780924B5B6803F00C03042B0CD052
:102EDC008F4B5B6803F00C03082B12D18C4B5B6897
:102EEC0003F48033B3F5803F0BD1894B1B6803F49B
:102EFC000033002B6CD07B685B68002B68D10123FE
:102F0C004CE27B685B68B3F5803F06D1804B1B6855
:102F1C007F4A43F4803313602EE07B685B68002BA0
:102F2C000CD17B4B1B687A4A23F480331360784BAB
:102F3C001B68774A23F4802313601DE07B685B6871
:102F4C00B3F5A02F0CD1724B1B68714A43F480234C
:102F5C0013606F4B1B686E4A43F4803313600BE0B5
:102F6C006B4B1B686A4A23F480331360684B1B68F5
:102F7C00674A23F4802313607B685B68002B13D0B3
:102F8C00FFF790FC386108E0FFF78CFC02463B69C8
:102F9C00D31A642B01D9032300E25D4B1B6803F4A5
:102FAC000033002BF0D014E0FFF77CFC386108E014
:102FBC00FFF778FC02463B69D31A642B01D9032333
:102FCC00ECE1534B1B6803F40033002BF0D100E011
:102FDC0000BF7B681B6803F00203002B63D04C4BD3
:102FEC005B6803F00C03002B0BD0494B5B6803F0C0
:102FFC000C03082B1CD1464B5B6803F48033002B6D
:10300C0016D1434B1B6803F00203002B05D07B68E1
:10301C001B69012B01D00123C0E13D4B1B6823F040
:10302C00F8027B685B69DB00394913430B603AE0BB
:10303C007B681B69002B20D0364B01221A60FFF7EE
:10304C0031FC386108E0FFF72DFC02463B69D31ACE
:10305C00022B01D90323A1E12D4B1B6803F00203C2
:10306C00002BF0D02A4B1B6823F0F8027B685B69BD
:10307C00DB00274913430B6015E0264B00221A6036
:10308C00FFF710FC386108E0FFF70CFC02463B69C7
:10309C00D31A022B01D9032380E11D4B1B6803F0CB
:1030AC000203002BF0D17B681B6803F00803002B94
:1030BC003AD07B689B69002B19D0174B01221A6000
:1030CC00FFF7F0FB386108E0FFF7ECFB02463B69C9
:1030DC00D31A022B01D9032360E10D4B5B6A03F079
:1030EC000203002BF0D0012000F0CEFA1CE00A4BBA
:1030FC0000221A60FFF7D6FB38610FE0FFF7D2FB16
:10310C0002463B69D31A022B08D9032346E100BFC0
:10311C00001002400000424280044242924B5B6A23
:10312C0003F00203002BE9D17B681B6803F0040356
:10313C00002B00F0A6800023FB758B4BDB6903F0A2
:10314C008053002B0DD1884BDB69874A43F08053A9
:10315C00D361854BDB6903F08053BB60BB680123F3
:10316C00FB75824B1B6803F48073002B18D17F4BCB
:10317C001B687E4A43F480731360FFF793FB38613E
:10318C0008E0FFF78FFB02463B69D31A642B01D989
:10319C00032303E1754B1B6803F48073002BF0D001
:1031AC007B68DB68012B06D16F4B1B6A6E4A43F0C0
:1031BC00010313622DE07B68DB68002B0CD16A4B9A
:1031CC001B6A694A23F001031362674B1B6A664A48
:1031DC0023F0040313621CE07B68DB68052B0CD125
:1031EC00614B1B6A604A43F0040313625E4B1B6A1B
:1031FC005D4A43F0010313620BE05B4B1B6A5A4AB6
:10320C0023F001031362584B1B6A574A23F0040343
:10321C0013627B68DB68002B15D0FFF743FB38612A
:10322C000AE0FFF73FFB02463B69D31A41F28832B2
:10323C00934201D90323B1E04B4B1B6A03F0020309
:10324C00002BEED014E0FFF72DFB38610AE0FFF7FE
:10325C0029FB02463B69D31A41F28832934201D9C9
:10326C0003239BE0404B1B6A03F00203002BEED1BF
:10327C00FB7D012B05D13C4BDB693B4A23F0805392
:10328C00D3617B68DB69002B00F08780364B5B6871
:10329C0003F00C03082B61D07B68DB69022B46D151
:1032AC00334B00221A60FFF7FDFA386108E0FFF794
:1032BC00F9FA02463B69D31A022B01D903236DE0BC
:1032CC00294B1B6803F00073002BF0D17B681B6A41
:1032DC00B3F5803F08D1244B5B6823F400327B6844
:1032EC009B68214913434B601F4B5B6823F474129A
:1032FC007B68196A7B685B6A0B431B4913434B6001
:10330C001B4B01221A60FFF7CDFA386108E0FFF77A
:10331C00C9FA02463B69D31A022B01D903233DE0BB
:10332C00114B1B6803F00073002BF0D035E0104BF1
:10333C0000221A60FFF7B6FA386108E0FFF7B2FA1C
:10334C0002463B69D31A022B01D9032326E0064B14
:10335C001B6803F00073002BF0D11EE07B68DB6967
:10336C00012B07D1012319E000100240007000402E
:10337C00600042420B4B5B68FB60FB6803F48032DD
:10338C007B681B6A9A4206D1FB6803F470127B6857
:10339C005B6A9A4201D0012300E0002318461837DB
:1033AC00BD4680BD0010024080B584B000AF78608F
:1033BC0039607B68002B01D10123D0E06A4B1B687C
:1033CC0003F007033A689A4210D9674B1B6823F045
:1033DC00070265493B6813430B60634B1B6803F0A2
:1033EC0007033A689A4201D00123B8E07B681B6856
:1033FC0003F00203002B20D07B681B6803F004034E
:10340C00002B05D0594B5B68584A43F4E06353607A
:10341C007B681B6803F00803002B05D0534B5B68DB
:10342C00524A43F460535360504B5B6823F0F002F4
:10343C007B689B684D4913434B607B681B6803F0AA
:10344C000103002B40D07B685B68012B07D1474BF5
:10345C001B6803F40033002B15D101237FE07B683C
:10346C005B68022B07D1414B1B6803F00073002BE8
:10347C0009D1012373E03D4B1B6803F00203002BC1
:10348C0001D101236BE0394B5B6823F003027B68AD
:10349C005B68364913434B60FFF704FAF8600AE0A7
:1034AC00FFF700FA0246FB68D31A41F288329342C6
:1034BC0001D9032353E02D4B5B6803F00C027B68AE
:1034CC005B689B009A42EBD1274B1B6803F0070308
:1034DC003A689A4210D2244B1B6823F00702224907
:1034EC003B6813430B60204B1B6803F007033A68DF
:1034FC009A4201D0012332E07B681B6803F004037D
:10350C00002B08D0194B5B6823F4E0627B68DB6806
:10351C00164913434B607B681B6803F00803002BB0
:10352C0009D0124B5B6823F460527B681B69DB008B
:10353C000E4913434B6000F021F802460B4B5B68BD
:10354C001B0903F00F030A49CB5C22FA03F3094A67
:10355C001360094B1B681846FFF762F900231846E5
:10356C001037BD4680BD00BF002002400010024055
:10357C00F8540008A0000020A400002080B487B0FC
:10358C0000AF0023FB600023BB6000237B610023A2
:10359C007B6000233B611E4B5B68FB60FB6803F0A8
:1035AC000C03042B02D0082B03D027E0194B3B61F2
:1035BC0027E0FB689B0C03F00F03174AD35C7B607E
:1035CC00FB6803F48033002B10D0114B5B685B0C51
:1035DC0003F00103114AD35CBB607B680D4A03FB0B
:1035EC0002F2BB68B2FBF3F37B6104E07B680C4A2C
:1035FC0002FB03F37B617B693B6102E0054B3B61A2
:10360C0000BF3B6918461C37BD4680BC704700BFE5
:10361C000010024000127A001055000820550008D6
:10362C0000093D0080B400AF024B1B681846BD4634
:10363C0080BC7047A000002080B500AFFFF7F2FF00
:10364C000246054B5B681B0A03F007030349CB5C7E
:10365C0022FA03F3184680BD0010024008550008FA
:10366C0080B500AFFFF7DEFF0246054B5B68DB0A57
:10367C0003F007030349CB5C22FA03F3184680BD21
:10368C00001002400855000880B485B000AF786087
:10369C000A4B1B680A4AA2FB03235B0A7A6802FBEB
:1036AC0003F3FB6000BFFB685A1EFA60002BF9D1D4
:1036BC0000BF00BF1437BD4680BC7047A00000207F
:1036CC00D34D621080B582B000AF78607B68002B60
:1036DC0001D1012341E07B6893F83D30DBB2002B34
:1036EC0006D17B68002283F83C207868FEF730FF17
:1036FC007B68022283F83D207B681A687B68043360
:10370C001946104600F028FC7B68012283F84620FD
:10371C007B68012283F83E207B68012283F83F20DE
:10372C007B68012283F840207B68012283F84120CA
:10373C007B68012283F842207B68012283F84320B6
:10374C007B68012283F844207B68012283F84520A2
:10375C007B68012283F83D20002318460837BD46BC
:10376C0080BD000080B485B000AF78607B6893F8B2
:10377C003D30DBB2012B01D001233AE07B68022201
:10378C0083F83D207B681B68DA687B681B6842F015
:10379C000102DA607B681B68184A93420ED07B6882
:1037AC001B68B3F1804F09D07B681B68144A9342A5
:1037BC0004D07B681B68134A934211D17B681B6849
:1037CC009B6803F00703FB60FB68062B10D07B683B
:1037DC001B681A687B681B6842F001021A6007E0DC
:1037EC007B681B681A687B681B6842F001021A60D0
:1037FC00002318461437BD4680BC7047002C01408E
:10380C00000400400008004080B582B000AF786032
:10381C007B68002B01D1012341E07B6893F83D309C
:10382C00DBB2002B06D17B68002283F83C20786841
:10383C00FEF7B2FE7B68022283F83D207B681A6893
:10384C007B6804331946104600F086FB7B68012226
:10385C0083F846207B68012283F83E207B68012296
:10386C0083F83F207B68012283F840207B6801228B
:10387C0083F841207B68012283F842207B68012277
:10388C0083F843207B68012283F844207B68012263
:10389C0083F845207B68012283F83D2000231846DD
:1038AC000837BD4680BD000080B584B000AF78609D
:1038BC0039603B68002B09D17B6893F83E30DBB252
:1038CC00012B14BF01230023DBB222E03B68042B45
:1038DC0009D17B6893F83F30DBB2012B14BF012375
:1038EC000023DBB215E03B68082B09D17B6893F809
:1038FC004030DBB2012B14BF01230023DBB208E004
:10390C007B6893F84130DBB2012B14BF01230023F9
:10391C00DBB2002B01D001235EE03B68002B04D10D
:10392C007B68022283F83E2013E03B68042B04D111
:10393C007B68022283F83F200BE03B68082B04D104
:10394C007B68022283F8402003E07B68022283F824
:10395C0041207B681B6801223968184600F07CFD09
:10396C007B681B681E4A934207D17B681B685A6CA4
:10397C007B681B6842F400425A647B681B68184AD7
:10398C0093420ED07B681B68B3F1804F09D07B68E3
:10399C001B68144A934204D07B681B68124A9342FA
:1039AC0011D17B681B689B6803F00703FB60FB6805
:1039BC00062B10D07B681B681A687B681B6842F06A
:1039CC0001021A6007E07B681B681A687B681B6839
:1039DC0042F001021A60002318461037BD4680BD24
:1039EC00002C0140000400400008004080B582B06B
:1039FC0000AF78607B681B681B6903F00203022B25
:103A0C0022D17B681B68DB6803F00203022B1BD1FD
:103A1C007B681B686FF002021A617B6801221A77BF
:103A2C007B681B689B6903F00303002B03D0786849
:103A3C0000F076FA05E0786800F069FA786800F032
:103A4C0078FA7B6800221A777B681B681B6903F085
:103A5C000403042B22D17B681B68DB6803F004038E
:103A6C00042B1BD17B681B686FF004021A617B6806
:103A7C0002221A777B681B689B6903F44073002B46
:103A8C0003D0786800F04CFA05E0786800F03FFA53
:103A9C00786800F04EFA7B6800221A777B681B6806
:103AAC001B6903F00803082B22D17B681B68DB68B9
:103ABC0003F00803082B1BD17B681B686FF008020E
:103ACC001A617B6804221A777B681B68DB6903F038
:103ADC000303002B03D0786800F022FA05E0786825
:103AEC0000F015FA786800F024FA7B6800221A7747
:103AFC007B681B681B6903F01003102B22D17B68B9
:103B0C001B68DB6803F01003102B1BD17B681B6850
:103B1C006FF010021A617B6808221A777B681B68A9
:103B2C00DB6903F44073002B03D0786800F0F8F9DC
:103B3C0005E0786800F0EBF9786800F0FAF97B683A
:103B4C0000221A777B681B681B6903F00103012BA9
:103B5C000ED17B681B68DB6803F00103012B07D1D6
:103B6C007B681B686FF001021A617868FEF7A2F996
:103B7C007B681B681B6903F08003802B0ED17B686C
:103B8C001B68DB6803F08003802B07D17B681B6804
:103B9C006FF080021A61786800F0E9FC7B681B68A2
:103BAC001B6903F04003402B0ED17B681B68DB685C
:103BBC0003F04003402B07D17B681B686FF0400279
:103BCC001A61786800F0BEF97B681B681B6903F00A
:103BDC002003202B0ED17B681B68DB6803F02003CD
:103BEC00202B07D17B681B686FF020021A61786864
:103BFC0000F0B4FC00BF0837BD4680BD80B586B070
:103C0C0000AFF860B9607A600023FB75FB6893F82D
:103C1C003C30012B01D10223AEE0FB68012283F87A
:103C2C003C207B680C2B00F29F8001A252F823F001
:103C3C00713C0008753D0008753D0008753D000895
:103C4C00B13C0008753D0008753D0008753D000845
:103C5C00F33C0008753D0008753D0008753D0008F3
:103C6C00333D0008FB681B68B968184600F0D6F9AC
:103C7C00FB681B689A69FB681B6842F008029A6132
:103C8C00FB681B689A69FB681B6822F004029A6146
:103C9C00FB681B689969BB681A69FB681B680A4357
:103CAC009A6164E0FB681B68B968184600F01CFA5E
:103CBC00FB681B689A69FB681B6842F400629A6196
:103CCC00FB681B689A69FB681B6822F480629A6126
:103CDC00FB681B689969BB681B691A02FB681B6847
:103CEC000A439A6143E0FB681B68B968184600F008
:103CFC0065FAFB681B68DA69FB681B6842F008020E
:103D0C00DA61FB681B68DA69FB681B6822F0040245
:103D1C00DA61FB681B68D969BB681A69FB681B68A8
:103D2C000A43DA6123E0FB681B68B968184600F0A7
:103D3C00AFFAFB681B68DA69FB681B6842F4006227
:103D4C00DA61FB681B68DA69FB681B6822F4806225
:103D5C00DA61FB681B68D969BB681B691A02FB68CE
:103D6C001B680A43DA6102E00123FB7500BFFB68A4
:103D7C00002283F83C20FB7D18461837BD4680BDD9
:103D8C0080B584B000AF786039600023FB737B682A
:103D9C0093F83C30012B01D10223B4E07B68012263
:103DAC0083F83C207B68022283F83D207B681B68EB
:103DBC009B68BB60BB6823F07703BB60BB6823F4D4
:103DCC007F43BB607B681B68BA689A603B681B6862
:103DDC00B3F5005F3ED0B3F5005F00F28780B3F51A
:103DEC00805F00F08680B3F5805F7FD8702B1AD08F
:103DFC00702B7BD8602B50D0602B77D8502B3CD0BD
:103E0C00502B73D8402B58D0402B6FD8302B64D00C
:103E1C00302B6BD8202B60D0202B67D8002B5CD09C
:103E2C00102B5AD062E07B6818683B6899683B6835
:103E3C005A683B68DB6800F0F0FA7B681B689B688B
:103E4C00BB60BB6843F07703BB607B681B68BA68D8
:103E5C009A604FE07B6818683B6899683B685A68C1
:103E6C003B68DB6800F0D9FA7B681B689A687B6852
:103E7C001B6842F480429A603CE07B6818683B689F
:103E8C0059683B68DB681A4600F050FA7B681B687F
:103E9C005021184600F0A7FA2CE07B6818683B68A4
:103EAC0059683B68DB681A4600F06EFA7B681B6841
:103EBC006021184600F097FA1CE07B6818683B6894
:103ECC0059683B68DB681A4600F030FA7B681B685F
:103EDC004021184600F087FA0CE07B681A683B68B2
:103EEC001B681946104600F07EFA03E00123FB73B1
:103EFC0000E000BF7B68012283F83D207B68002234
:103F0C0083F83C20FB7B18461037BD4680BD80B43F
:103F1C0083B000AF786000BF0C37BD4680BC7047E3
:103F2C0080B483B000AF786000BF0C37BD4680BC56
:103F3C00704780B483B000AF786000BF0C37BD46CB
:103F4C0080BC704780B483B000AF786000BF0C3782
:103F5C00BD4680BC7047000080B485B000AF78606F
:103F6C0039607B681B68FB607B68294A93420BD0E5
:103F7C007B68B3F1804F07D07B68264A934203D00D
:103F8C007B68254A934208D1FB6823F07003FB60E1
:103F9C003B685B68FA681343FB607B681C4A93427E
:103FAC000BD07B68B3F1804F07D07B68194A9342E2
:103FBC0003D07B68184A934208D1FB6823F4407302
:103FCC00FB603B68DB68FA681343FB60FB6823F01B
:103FDC0080023B685B691343FB607B68FA681A607C
:103FEC003B689A687B68DA623B681A687B689A62FD
:103FFC007B68074A934203D13B681A697B681A6352
:10400C007B6801225A6100BF1437BD4680BC7047E3
:10401C00002C0140000400400008004080B487B030
:10402C0000AF786039607B681B6A7B617B681B6AB8
:10403C0023F001027B681A627B685B683B617B68DA
:10404C009B69FB60FB6823F07003FB60FB6823F04B
:10405C000303FB603B681B68FA681343FB607B69D6
:10406C0023F002037B613B689B687A6913437B6195
:10407C007B681C4A93420CD17B6923F008037B615B
:10408C003B68DB687A6913437B617B6923F004032B
:10409C007B617B68134A934211D13B6923F4807393
:1040AC003B613B6923F400733B613B685B693A6994
:1040BC0013433B613B689B693A6913433B617B68E3
:1040CC003A695A607B68FA689A613B685A687B68FF
:1040DC005A637B687A691A6200BF1C37BD4680BC84
:1040EC00704700BF002C014080B487B000AF7860EF
:1040FC0039607B681B6A7B617B681B6A23F010024A
:10410C007B681A627B685B683B617B689B69FB60C0
:10411C00FB6823F4E043FB60FB6823F44073FB6013
:10412C003B681B681B02FA681343FB607B6923F036
:10413C0020037B613B689B681B017A6913437B619D
:10414C007B681D4A93420DD17B6923F080037B6110
:10415C003B68DB681B017A6913437B617B6923F045
:10416C0040037B617B68144A934213D13B6923F46F
:10417C0080633B613B6923F400633B613B685B6993
:10418C009B003A6913433B613B689B699B003A690E
:10419C0013433B617B683A695A607B68FA689A61A1
:1041AC003B685A687B689A637B687A691A6200BFBD
:1041BC001C37BD4680BC7047002C014080B487B0D2
:1041CC0000AF786039607B681B6A7B617B681B6A17
:1041DC0023F480727B681A627B685B683B617B6846
:1041EC00DB69FB60FB6823F07003FB60FB6823F06A
:1041FC000303FB603B681B68FA681343FB607B6935
:10420C0023F400737B613B689B681B027A69134340
:10421C007B617B681D4A93420DD17B6923F400635B
:10422C007B613B68DB681B027A6913437B617B69AA
:10423C0023F480637B617B68144A934213D13B69FE
:10424C0023F480533B613B6923F400533B613B688F
:10425C005B691B013A6913433B613B689B691B011A
:10426C003A6913433B617B683A695A607B68FA6828
:10427C00DA613B685A687B68DA637B687A691A6230
:10428C0000BF1C37BD4680BC704700BF002C0140EE
:10429C0080B487B000AF786039607B681B6A3B6183
:1042AC007B681B6A23F480527B681A627B685B68AC
:1042BC007B617B68DB69FB60FB6823F4E043FB609C
:1042CC00FB6823F44073FB603B681B681B02FA68B5
:1042DC001343FB603B6923F400533B613B689B68D1
:1042EC001B033A6913433B617B680F4A934209D124
:1042FC007B6923F480437B613B685B699B017A6932
:10430C0013437B617B687A695A607B68FA68DA616F
:10431C003B685A687B681A647B683A691A6200BF0A
:10432C001C37BD4680BC7047002C014080B487B060
:10433C0000AFF860B9607A60FB681B6A7B61FB6850
:10434C001B6A23F00102FB681A62FB689B693B61E4
:10435C003B6923F0F0033B617B681B013A69134313
:10436C003B617B6923F00A037B617A69BB68134369
:10437C007B61FB683A699A61FB687A691A6200BFD3
:10438C001C37BD4680BC704780B487B000AFF86066
:10439C00B9607A60FB681B6A7B61FB681B6A23F05F
:1043AC001002FB681A62FB689B693B613B6923F452
:1043BC0070433B617B681B033A6913433B617B6928
:1043CC0023F0A0037B61BB681B017A6913437B61FB
:1043DC00FB683A699A61FB687A691A6200BF1C37FC
:1043EC00BD4680BC704780B485B000AF7860396042
:1043FC007B689B68FB60FB6823F07003FB603A688A
:10440C00FB68134343F00703FB607B68FA689A6010
:10441C0000BF1437BD4680BC704780B487B000AF76
:10442C00F860B9607A603B60FB689B687B617B6974
:10443C0023F47F437B613B681A027B681A43BB6899
:10444C0013437A6913437B61FB687A699A6000BFF6
:10445C001C37BD4680BC704780B487B000AFF86095
:10446C00B9607A60BB6803F01F03012202FA03F300
:10447C007B61FB681A6A7B69DB431A40FB681A6232
:10448C00FB681A6ABB6803F01F03796801FA03F32F
:10449C001A43FB681A6200BF1C37BD4680BC7047CC
:1044AC0080B485B000AF786039607B6893F83C309D
:1044BC00012B01D1022346E07B68012283F83C20CA
:1044CC007B68022283F83D207B681B685B68FB607D
:1044DC007B681B689B68BB60FB6823F07003FB6008
:1044EC003B681B68FA681343FB607B681B68FA68BF
:1044FC005A607B681B68164A93420ED07B681B6817
:10450C00B3F1804F09D07B681B68124A934204D0E8
:10451C007B681B68104A93420CD1BB6823F0800364
:10452C00BB603B685B68BA681343BB607B681B6805
:10453C00BA689A607B68012283F83D207B68002270
:10454C0083F83C20002318461437BD4680BC7047C6
:10455C00002C0140000400400008004080B483B0EF
:10456C0000AF786000BF0C37BD4680BC704780B48C
:10457C0083B000AF786000BF0C37BD4680BC70477D
:10458C0080B582B000AF78607B68002B01D101232D
:10459C0042E07B6893F84130DBB2002B06D17B689C
:1045AC00002283F840207868FEF746F87B682422C6
:1045BC0083F841207B681B68DA687B681B6822F4EF
:1045CC000052DA60786800F01DF97B681B681A6984
:1045DC007B681B6822F490421A617B681B685A69DD
:1045EC007B681B6822F02A025A617B681B68DA68B8
:1045FC007B681B6842F40052DA607B6800225A64C4
:10460C007B68202283F841207B68202283F842209B
:10461C007B6800225A63002318460837BD4680BDCC
:10462C0080B58AB002AFF860B9603B601346FB807E
:10463C0000237B61FB6893F84130DBB2202B6DD1FA
:10464C00BB68002B02D0FB88002B01D1012366E054
:10465C00FB6800225A64FB68212283F84120FEF794
:10466C0021F97861FB68FA889A84FB68FA88DA8405
:10467C00FB689B68B3F5805F08D1FB681B69002B56
:10468C0004D10023FB61BB68BB6103E0BB68FB6129
:10469C000023BB612AE03B6800937B6900228021E8
:1046AC00F86800F040F80346002B01D0032336E0F5
:1046BC00FB69002B0BD1BB691B881A46FB681B6876
:1046CC00C2F308025A60BB690233BB6107E0FB69A5
:1046DC001A78FB681B685A60FB690133FB61FB6845
:1046EC00DB8C9BB2013B9AB2FB68DA84FB68DB8CF7
:1046FC009BB2002BCFD13B6800937B6900224021F9
:10470C00F86800F010F80346002B01D0032306E0F4
:10471C00FB68202283F84120002300E00223184686
:10472C002037BD4680BD80B590B000AFF860B96051
:10473C003B601346FB7150E0BB6CB3F1FF3F4CD0B8
:10474C00BB6C002B07D0FEF7ADF802463B68D31AC2
:10475C00BA6C9A4241D2FB681B680C33BB62BB6AD1
:10476C0053E8003F7B627B6A23F4D073FB63FB68E6
:10477C001B680C33FA6B7A633B63396B7A6B41E8D9
:10478C000023FB62FB6A002BE5D1FB681B6814332A
:10479C007B617B6953E8003F3B613B6923F001037C
:1047AC00BB63FB681B681433BA6B3A62FB61F96933
:1047BC003A6A41E80023BB61BB69002BE5D1FB6879
:1047CC00202283F84120FB68202283F84220FB68DA
:1047DC00002283F8402003230FE0FB681B681A6853
:1047EC00BB681340BA689A420CBF01230023DBB2AA
:1047FC001A46FB799A429FD0002318464037BD4693
:10480C0080BD000080B584B000AF78607B681B6809
:10481C001B6923F440517B68DA687B681B680A4388
:10482C001A617B689A687B681B691A437B685B69B1
:10483C001343BB607B681B68DB6823F4B05323F025
:10484C000C037A681268B9680B43D3607B681B68E9
:10485C005B6923F440717B689A697B681B680A4327
:10486C005A617B681B682C4A934203D1FEF7F8FE11
:10487C00F86002E0FEF7E0FEF860FA6813469B0071
:10488C0013449A001A447B685B689B00B2FBF3F3F9
:10489C00224AA2FB03235B091901FA6813469B0009
:1048AC0013449A001A447B685B689B00B2FBF3F2DA
:1048BC001A4BA3FB02035B09642000FB03F3D31A1E
:1048CC001B013233154AA2FB03235B0903F0F003EF
:1048DC001944FA6813469B0013449A001A447B68E7
:1048EC005B689B00B2FBF3F20C4BA3FB02035B096E
:1048FC00642000FB03F3D31A1B013233074AA2FBDB
:10490C0003235B0903F00F027B681B680A449A605F
:10491C0000BF1037BD4680BD003801401F85EB51EC
:10492C000EB46FF0004100B59CB01DAB0290069028
:10493C00079104910848094953F8042B0591006824
:10494C0002A9019300F08EF90022029B1A701CB090
:10495C005DF804EB03B07047F80000200802FFFF7D
:10496C0003460244934200D1704703F8011BF9E758
:10497C00014B1868704700BFF800002070B5002686
:10498C000C4D0D4C641BA410A64209D100F07AFC0E
:10499C0000260A4D0A4C641BA410A64205D170BD1A
:1049AC0055F8043B98470136EEE755F8043B984719
:1049BC000136F2E7585500085855000858550008BC
:1049CC005C5500087047704738B50546002940D043
:1049DC0051F8043C0C1F002BB8BFE41800F0DCF8B5
:1049EC001C4A136833B9636014602846BDE838402C
:1049FC0000F0D8B8A34208D9206821188B4201BF17
:104A0C0019685B6809182160EDE71A465B680BB101
:104A1C00A342FAD911685018A0420BD12068014466
:104A2C00501883421160E0D118685B68084410602C
:104A3C005360DAE702D90C232B60D6E720682118E3
:104A4C008B4201BF19685B68091821606360546070
:104A5C00CBE738BDC404002070B50E4E0C4631684F
:104A6C00054611B900F0AAFB30602146284600F03B
:104A7C00A5FB431C0AD0C41C24F00304A04207D09D
:104A8C00211A284600F09AFB013001D14FF0FF3477
:104A9C00204670BDC80400202DE9F843CD1C25F03C
:104AAC00030508350C2D38BF0C25002D074601DBFE
:104ABC00A94205D90C2300263B603046BDE8F8839B
:104ACC00DFF8D08000F068F8D8F800301C465CBBEA
:104ADC0029463846FFF7C0FF431C044655D1D8F889
:104AEC0000402646002E45D1002C48D02368314684
:104AFC00384604EB030900F061FB81453FD1216886
:104B0C0038466D1A2946FFF7A7FF013037D02368C6
:104B1C002B442360D8F80030002B38D05A68A242BE
:104B2C002BD100225A600FE02268521B1FD40B2A93
:104B3C0017D96119A342256018BF5960636808BF73
:104B4C00C8F8001062514B60384604F10B0600F0B7
:104B5C0029F826F00706231DF21AAED09B1BA35092
:104B6C00ABE7A3426268DDD1C8F80020ECE723462E
:104B7C006468ACE734467668B4E71346CCE70C239C
:104B8C0038463B6000F00EF897E72560DCE75B6089
:104B9C00FFDE00BFC40400200148FFF713BF00BFB5
:104BAC00C00400200148FFF70EBF00BFC004002066
:104BBC002DE9F0471F468E688246BE420C46904651
:104BCC000B682CD88A8912F4906F26D06569096914
:104BDC0005EB4505A3EB010905EBD5757B1C4B4497
:104BEC006D109D4238BF1D46530527D52946FFF74A
:104BFC0053FF064660B34A46216900F0FDFAA389CB
:104C0C0023F4906343F08003A38126614E44266015
:104C1C003E466561A5EB0905A560BE4200D93E463E
:104C2C0032464146206800F0AFFA0020A3689B1B77
:104C3C00A360236833442360BDE8F0872A4600F064
:104C4C00E9FA06460028E0D150462169FFF7BCFE80
:104C5C000C23CAF80030A3894FF0FF3043F0400317
:104C6C00A381E9E72DE9F04F98468B8907461B068F
:104C7C000D4614469DB00ED50B6963B94021FFF764
:104C8C000BFF2860286120B90C233B604FF0FF30EC
:104C9C00D0E040236B610023099320238DF8293049
:104CAC0030234FF00109CDF80C80DFF8A0818DF88E
:104CBC002A3023469A4613F8012B0AB1252AF9D13A
:104CCC00BAEB040B0BD05B46224629463846FFF75D
:104CDC006FFF013000F0A980099A5A4409929AF8A2
:104CEC000030002B00F0A18000234FF0FF32CDE903
:104CFC0005230AF1010A049307938DF853301A9394
:104D0C005446052214F8011B504800F067FA049A27
:104D1C00D8B9D00644BF20238DF85330110744BFB7
:104D2C002B238DF853309AF800302A2B15D054468B
:104D3C0000204FF00A0C079A214611F8013B303B3A
:104D4C00092B4DD9B0B1079214E0A0EB080309FA76
:104D5C0003F31343A2460493D2E7039B191D1B686C
:104D6C000391002BBBBF5B4242F0020207930793F7
:104D7C00B8BF049223782E2B0CD163782A2B34D114
:104D8C00039B02341A1D1B680392002BB8BF4FF013
:104D9C00FF330593DFF8B8A003225046217800F0CA
:104DAC001DFA38B14022049BA0EB0A008240134349
:104DBC000134049314F8011B062226488DF82810A0
:104DCC0000F00CFA002838D0234B1BBB039B073395
:104DDC0023F0070308330393099B3344099368E7D3
:104DEC000C4601200CFB0232A6E700234FF00A0C04
:104DFC00194601340593204610F8012B303A092A44
:104E0C0003D9002BC6D00591C4E7044601230CFB43
:104E1C000121F0E703AB00932A4638460F4B04A957
:104E2C00AFF30080421C0646D6D1AB895B063FF53A
:104E3C002DAF09981DB0BDE8F08F03AB00932A4647
:104E4C003846064B04A900F07DF8EBE72255000824
:104E5C00285500082C55000800000000BD4B000828
:104E6C002DE9F047164699468A680B690746934226
:104E7C00B8BF1346336091F843200C46DDF8208010
:104E8C000AB1013333602368990642BF3368023399
:104E9C003360256815F0060506D104F1190AE3689C
:104EAC0032689B1AAB422BDC94F84320131E226809
:104EBC0018BF0123920630D44946384604F1430208
:104ECC00C047013023D02368226903F00603042B6A
:104EDC0014BF002533684FF0000608BFE56804F1E5
:104EEC001A0408BFED1A54F8123C08BF25EAE57500
:104EFC009342C4BF9B1AED18B5421AD1002008E0AA
:104F0C000123524649463846C047013003D14FF081
:104F1C00FF30BDE8F0870135C1E73020E11881F89A
:104F2C0043005A1C94F845102244023382F8431073
:104F3C00C2E70123224649463846C0470130E6D035
:104F4C000136D9E72DE9FF470F7E9146782F804631
:104F5C000C469A460C9D01F1430207D8622F0AD8E1
:104F6C00002F00F0D580582F00F0C18004F14205CD
:104F7C0084F842703AE0A7F16303152BF6D801A12F
:104F8C0051F823F0E94F0008FD4F0008794F000855
:104F9C00794F0008794F0008794F0008FD4F000841
:104FAC00794F0008794F0008794F0008794F0008B5
:104FBC000351000829500008BD500008794F000823
:104FCC00794F000825510008794F00082950000836
:104FDC00794F0008794F0008C55000082B681A1D3E
:104FEC001B682A6004F1420584F842300123A0E0DA
:104FFC0020682B68070603F10401296001D51E689F
:10500C0003E04606FBD5B3F90060002E03DA2D232E
:10501C00764284F843300A23594812E02B68206802
:10502C00191D2960050601D51E6802E04106FBD555
:10503C001E886F2F0CBF08230A235148002184F8C7
:10504C0043106568002DA8BF2168A560A4BF21F09E
:10505C00040121600EB9002D4BD01546B6FBF3F1BF
:10506C0003FB1167C75D05F8017D3746BB420E4651
:10507C00F4D9082B0BD12368DE0708D523696168A6
:10508C009942DEBF302305F8013C05F1FF35521B78
:10509C0022614B4621464046CDF800A003AAFFF7FB
:1050AC00DFFE01304AD14FF0FF3004B0BDE8F0878D
:1050BC00236843F0200323607827324884F8457036
:1050CC00236829681F0651F8046B02D45F0648BF99
:1050DC00B6B2DF0748BF43F02003296048BF236006
:1050EC001EB9236823F0200323601023A6E724486D
:1050FC00E4E71546BDE72B682668181D6169286032
:10510C0035061B6801D5196002E07006FBD51980C5
:10511C00002315462361BCE72B6800211A1D2A6069
:10512C001D686268284600F059F808B1401B6060A1
:10513C0063682361002384F84330AAE72A46494672
:10514C0040462369D0470130ADD023689B0713D468
:10515C00E068039B9842B8BF1846A6E70123324685
:10516C0049464046D04701309DD00135E36803994C
:10517C005B1AAB42F2DCEBE7002504F11906F5E70C
:10518C003355000844550008884210B501EB020461
:10519C0002D98442234607D8431EA14208D011F8F5
:1051AC00012B03F8012FF8E7014602448A4200D193
:1051BC0010BD13F8014D02F8014DF7E738B5002387
:1051CC00054D044608462B60FDF7B2FA431C02D18C
:1051DC002B6803B1236038BDBC040020034610B516
:1051EC00C9B202449342184601D1002003E004786E
:1051FC0001338C42F6D110BD0A44914200F1FF33C9
:10520C0000D1704710B511F8014B914203F8014FD2
:10521C00F9D110BD2DE9F041804614460E4621B956
:10522C001146BDE8F041FFF737BC2AB9FFF7CCFBBC
:10523C0025462846BDE8F08100F01BF8844207465D
:10524C0002D8B4EB500F12D821464046FFF724FC8D
:10525C0005460028EDD0BC422246314628BF3A46CE
:10526C00FFF7CAFF31464046FFF7AEFBE1E7354694
:10527C00DFE751F8043C181F002BBCBF0B58C018BB
:10528C0070470000F8B500BFF8BC08BC9E467047DC
:0C529C00F8B500BFF8BC08BC9E46704787
:1052A800214155544F4D41544943230D0A000000F4
:1052B80021375345473A25647C7C2564230D0A0031
:1052C80021375345473A256425647C7C2564256449
:1052D800230D0A00215045444553545249414E5F1D
:1052E8004F4646230D0A0000215045444553545269
:1052F80049414E5F475245454E230D0A00000000C4
:10530800215045444553545249414E5F5245442328
:105318000D0A0000215045444553545249414E5FFF
:1053280059454C4C4F57230D0A000000214D414E62
:1053380055414C230D0A0000215045444553545211
:1053480049414E5F4F4646230D0A0000215045440F
:105358004553545249414E5F475245454E230D0A25
:1053680000000000215045444553545249414E5FC6
:10537800524544230D0A00002150454445535452D8
:1053880049414E5F59454C4C4F57230D0A000000C8
:105398002154554E494E47230D0A000021375345E5
:1053A800473A256425642354554E494E475F524574
:1053B800440D0A0021375345473A25642564235490
:1053C800554E494E475F59454C4C4F570D0A000002
:1053D80021375345473A256425642354554E494E91
:1053E800475F524544282B31290D0A002137534580
:1053F800473A256425642354554E494E475F524524
:1054080044282B3130290D0A00000000213753456C
:10541800473A25642564235245445F5345540D0A91
:105428000000000021375345473A2564256423547A
:10543800554E494E475F475245454E282B31290D59
:105448000A00000021375345473A25642564235450
:10545800554E494E475F475245454E282B31302916
:105468000D0A000021375345473A25642564234730
:105478005245454E5F5345540D0A000021375345A8
:10548800473A256425642354554E494E475F475291
:1054980045454E0D0A00000021375345473A25641B
:1054A80025642354554E494E475F59454C4C4F5738
:1054B800282B31290D0A000021375345473A256426
:1054C80025642354554E494E475F59454C4C4F5718
:1054D800282B3130290D0A0021375345473A2564D6
:1054E80025642359454C4C4F575F5345540D0A00CA
:1054F800000000000000000001020304060708097C
:10550800000000000102030402030405060708095D
:105518000A0B0C0D0E0F10100102232D302B20004A
:10552800686C4C0065666745464700303132333455
:1055380035363738394142434445460030313233F5
:1055480034353637383961626364656600000000B7
:045558003101000815
:04555C000D01000835
:105560000200100001000100000801400008014095
:10557000000C014000080140010000000000000094
:10558000000000000000000001000000000000001A
:10559000000000000000000001000000000000000A
:1055A00000000000000000000100000000000000FA
:1055B0000000000000000000C80000000000000023
:1055C00000000000000000004D0A00002D0800004F
:1055D0004D0A00002D0800004D0A00002D080000B3
:1055E0004D0A00002D08000001000000010000002D
:1055F00001000000050000000300000002000000A0
:105600000024F40010000000010000000000000071
:1056100084030020EC03002054040020000000005C
:10562000000000000000000000000000000000007A
:10563000000000000000000000000000000000006A
:10564000000000000000000000000000000000005A
:0C5650000000000000000000AC00002082
:04000005080027B513
:00000001FF
